:100000000C9445000C946D100C946D100C946D10B4
:100010000C946D100C946D100C946D100C94DE0A01
:100020000C946D100C946D100C94DA0D0C9459080E
:100030000C946D100C946D100C946D100C946D104C
:100040000C946D100C946D100C946D100C946D103C
:100050000C946D100060006C80006C006E0020E855
:10006000006E007080007000710020EA0071007363
:1000700080007300740020EB00740076800076002E
:10008000770020EC0077007A800011241FBECFE5B6
:10009000D8E0DEBFCDBFE4E5F0E040E017C0B591A9
:1000A000A59135912591059107FD0CC095918591FC
:1000B000EF01F92FE82F05900D92A217B307D9F79A
:1000C000FE0104C01D92A217B307E1F7E938F40757
:0E00D00031F70E9461100C94A80FF894FFCF36
:1000DE0053756E7269736520416C61726D20436C4D
:1000EE006F636B005E5F5E2057656C636F6D65209E
:1000FE005E5F5E0042593A204B594C49414E2054A6
:10010E0045434800416C6920456D62616279203932
:10011E003830005365696620536865626C20383943
:10012E00340041686D6564204E6173722031303643
:10013E003900417A7A612053616565642039313224
:10014E0000312D53657420416C61726D2020207C2E
:10015E0000322D43616E63656C20416C61726D7C63
:10016E0000332D53686F7720416C61726D73207C64
:01017E000080
:10017F00202A2A4D6F6469667920616C61726D2047
:10018F00002A2A003129204E657720416C61726D5B
:10019F00003229204D6F6469667920416C61726D60
:1001AF00002A53657474696E67206E657720616CE1
:1001BF0061726D2A004E6F206672656520616C61F9
:1001CF00726D73206C65667421002A2A43686F6F05
:1001DF00736520416C61726D2A2A004E6F20416C4D
:0901EF0061726D73205365740008
:1001F8004E6F20416C61726D7320536574002D2021
:1002080000414C41524D2044454C4554454400530F
:0C02180055434345535346554C4C590088
:0C022400212120414C41524D202121009D
:10023000AF92BF92CF92DF92EF92FF920F931F93F4
:10024000CF93DF9300D000D0CDB7DEB77C015B0148
:100250008A01690119821A821B821C82AE014F5FDA
:100260005F4F63E083E00E94580C89818823B9F0D6
:10027000809170008F5F809370008A3021F48BE052
:100280008093700005C08D3019F488E08093700071
:100290006091700081E00E94FE0D10927200AE012C
:1002A0004E5F5F4F65E083E00E94580C8A8188238F
:1002B00009F4A8C060917000693029F118F4683021
:1002C00041F09EC06B3009F450C06C3009F467C037
:1002D00097C0F7018081893010F0108203C08F5FD2
:1002E000F7018083F701208130E040E050E060E0DA
:1002F00070E080E090E00E9450046091700081E026
:100300000E94FE0D7DC0F50180818930D0F0108201
:10031000F7018081893010F0108203C08F5FF701F0
:100320008083615081E00E94FE0DF701208130E062
:1003300040E050E060E070E080E090E00E94500417
:1003400003C08F5FF5018083F501208130E040E03C
:1003500050E060E070E080E090E00E945004609126
:10036000700081E00E94FE0D4BC0F8018081853055
:1003700010F0108203C08F5FF8018083F8012081A4
:1003800030E040E050E060E070E080E090E00E940B
:1003900050046091700081E00E94FE0D31C0F601B2
:1003A00080818930D0F01082F8018081853010F092
:1003B000108203C08F5FF8018083615081E00E944A
:1003C000FE0DF801208130E040E050E060E070E098
:1003D00080E090E00E94500403C08F5FF6018083AC
:1003E000F601208130E040E050E060E070E080E025
:1003F00090E00E9450046091700081E00E94FE0D28
:1004000010927200AE014D5F5F4F66E083E00E9484
:10041000580C8B81882309F4AEC06091700069305C
:1004200031F118F4683041F0A4C06B3009F453C0C6
:100430006C3009F46BC09DC0F7018081811103C04D
:1004400089E0808303C08150F7018083F701208118
:1004500030E040E050E060E070E080E090E00E943A
:1004600050046091700081E00E94FE0D82C0F50191
:10047000808181111CC089E08083F7018081811116
:1004800003C089E0808303C08150F70180836150FD
:1004900081E00E94FE0DF701208130E040E050E055
:1004A00060E070E080E090E00E94500403C0815062
:1004B000F5018083F501208130E040E050E060E00C
:1004C00070E080E090E00E9450046091700081E054
:1004D0000E94FE0D4EC0F8018081811103C085E0AD
:1004E000808303C08150F8018083F801208130E0CF
:1004F00040E050E060E070E080E090E00E94500456
:100500006091700081E00E94FE0D33C0F601808191
:1005100081111CC089E08083F8018081811103C0B2
:1005200085E0808303C08150F8018083615081E0C1
:100530000E94FE0DF801208130E040E050E060E0D4
:1005400070E080E090E00E94500403C08150F6010A
:100550008083F601208130E040E050E060E070E010
:1005600080E090E00E9450046091700081E00E9461
:10057000FE0D10927200AE014C5F5F4F67E083E0AA
:100580000E94580C8C818823B9F0809170008150B2
:10059000809370008A3021F489E08093700005C058
:1005A000873019F48CE0809370006091700081E0D6
:1005B0000E94FE0D1092720081E00F900F900F903C
:1005C0000F90DF91CF911F910F91FF90EF90DF90EF
:0805D000CF90BF90AF90089599
:1005D8000F931F93CF93DF93CDB7DEB728970FB64E
:1005E800F894DEBF0FBECDBF19821A821B821C820F
:1005F8001D821E821F8218860E94521061E080E0D0
:100608000E94FE0D63E971E080E00E94920E61E0B5
:1006180081E00E94FE0D60EA71E080E00E94920E87
:1006280083E00E94480D15C0AE014F5F5F4F67E041
:1006380083E00E94580CAE014E5F5F4F66E083E096
:100648000E94580CAE014D5F5F4F65E083E00E9449
:10065800580C8981811106C09A81911103C09B8130
:10066800992311F3882309F480C0809171008330A5
:1006780008F06FC00E94521060EB71E080E00E94A9
:10068800920E65E083E00E94FE0D8FE70E94EF075F
:1006980068E083E00E94FE0D8DE20E94EF076BE0A8
:1006A80083E00E94FE0D8BE20E94EF076EE083E07C
:1006B8000E94FE0D8EE70E94EF0728E041E060E00F
:1006C80080E00E942109109272000DC09E01285FEF
:1006D8003F4FAE01495F5F4FBE016A5F7F4FCE015A
:1006E80005960E94180180917200853078F38D81FB
:1006F800880F282F220F220F280F8E81280F8F8115
:10070800880F982F990F990F890F9885890F2111B4
:1007180002C009F4B5C030917100E32FF0E0EE0F8C
:10072800FF1FEE0FFF1FE05AFF4F2083818390E0E9
:100738004CE3249F800D911D112440916E0050912F
:100748006F00840F951F938382833F5F30937100FE
:1007580097C00E94521068E081E00E94FE0D64EC90
:1007680071E080E00E94920E8BC08A81882309F490
:1007780087C080917100882309F472C00E945210CA
:1007880062E080E00E94FE0D69ED71E080E00E9469
:10079800920E61E081E00E94FE0D10E001E010C0C1
:1007A800E12FF0E0EE0FFF1FEE0FFF1FE05AFF4FA3
:1007B800202F41E0618180810E942109095F1F5F2C
:1007C80080917100181760F384E00E94480D198227
:1007D8001A821B829E012C5F3F4FAE014D5F5F4F17
:1007E800BE016E5F7F4FCE0101960E94CE0B8981BC
:1007F800882381F08E01085F1F4F9E01295F3F4FBC
:10080800AE014A5F5F4FBE016B5F7F4F80E00E9481
:10081800380536C08A81882381F08E01085F1F4F12
:100828009E01295F3F4FAE014A5F5F4FBE016B5F7C
:100838007F4F81E00E94380523C08B81882301F116
:100848008E01085F1F4F9E01295F3F4FAE014A5F2F
:100858005F4FBE016B5F7F4F82E00E94380510C07A
:100868000E9452106AEE71E080E00E94920E8FEFB3
:1008780097EA21E6815090402040E1F700C000004F
:1008880081E028960FB6F894DEBF0FBECDBFDF918A
:08089800CF911F910F9108950B
:1008A0002F923F924F925F926F927F928F929F9280
:1008B000AF92BF92CF92DF92EF92FF920F931F936E
:1008C000CF93DF93CDB7DEB76B970FB6F894DEBF4B
:1008D0000FBECDBF2D8B3E8B942E852E6F8B788FC8
:1008E000382E292EA0E00E94860FACF48DE20E94E3
:1008F000EF072D893E89492D582D6F89788D832DDD
:10090000922D0E94320F2D8B3E8B942E852E6F8B55
:10091000788F382E292EED895E88492C898E8F8913
:100920008A8F888D8B8FB32DF22D612C712C20C076
:100930008FEF681A780A0F2EFAE0AF2EF02DB12C47
:10094000C12CD12CE12CF12C00E010E02E2F352D04
:10095000442D598D6A8D7B8D8B2F9F2F0E947D0D8D
:10096000E22F532E442E598F6A8F7B8FB82FF92F89
:100970002E2F352D442D598D6A8D7B8D8B2F9F2FDA
:10098000A0E00E94860FA1F62D893E89492D582DA1
:100990006F89788D832D922D0E94860F21F480E33C
:1009A0000E94EF074BC0230181E0481A510832C072
:1009B0000F2EFAE0AF2EF02DB12CC12CD12CE12C52
:1009C000F12C00E010E02D893E89492D582D6F89CA
:1009D000788D832D922D0E947B0DE1E0F0E0EC0FED
:1009E000FD1FE40DF51D205D20832D893E89492DD5
:1009F000582D6F89788D832D922D0E947D0D2D8B22
:100A00003E8B942E852E6F8B788F382E292E81E089
:100A1000481A5108552064F6812C912C0CC0E1E055
:100A2000F0E0EC0FFD1FE80DF91D80810E94EF073B
:100A30008FEF881A980A8614970488F381E06B96E2
:100A40000FB6F894DEBF0FBECDBFDF91CF911F91DF
:100A50000F91FF90EF90DF90CF90BF90AF909F905D
:100A60008F907F906F905F904F903F902F90089560
:100A70008F929F92AF92BF92CF92DF92EF92FF92AE
:100A80000F931F93CF93DF93982E5B016A01790137
:100A9000E8010E9452106FE771E080E00E94920E20
:100AA000092D10E0A8014F5F5F4F952F990F990B0B
:100AB000242F352F492F592F692F792F892F0E94E5
:100AC000500460E971E080E00E94920E65E083E0EE
:100AD0000E94FE0D8FE70E94EF0768E083E00E940E
:100AE000FE0D8DE20E94EF076BE083E00E94FE0D99
:100AF0008BE20E94EF076EE083E00E94FE0D8EE71E
:100B00000E94EF07C801880F991F880F991F9C0149
:100B1000205A3F4F490128E041E0F4016181808182
:100B20000E942109F40190818DEC989F912D112450
:100B3000969596959695F5019083F4012081289FCE
:100B4000912D1124969596959695990F392F330FDF
:100B5000330F930F291BF6012083F4019181989F95
:100B6000912D1124969596959695F7019083F40111
:100B70009181989F812D1124869586958695880F61
:100B8000282F220F220F820F981B98831092720039
:100B900006C09E01A701B601C5010E9418019091EF
:100BA00072009530B0F3F5012081F6018081220FAB
:100BB000922F990F990F290F280FF70180819881A3
:100BC000880F382F330F330F830F890F211101C086
:100BD000B9F0000F111F000F111FF801E05AFF4F6D
:100BE0002083818390E03CE3239F800D911D11249D
:100BF00020916E0030916F00820F931F9383828348
:100C0000DF91CF911F910F91FF90EF90DF90CF90E8
:0A0C1000BF90AF909F908F90089561
:100C1A00442319F04130E9F174C0813099F028F089
:100C2A008230E9F0833041F16EC02AB381E090E06E
:100C3A0002C0880F991F6A95E2F7809582238ABBC2
:100C4A0081E0089527B381E090E002C0880F991FE0
:100C5A006A95E2F78095822387BB81E0089524B3E1
:100C6A0081E090E002C0880F991F6A95E2F78095AB
:100C7A00822384BB81E0089521B381E090E002C021
:100C8A00880F991F6A95E2F78095822381BB81E0DC
:100C9A000895813091F028F08230D9F0833029F11B
:100CAA0034C02AB381E090E002C0880F991F6A9588
:100CBA00E2F7822B8ABB81E0089527B381E090E0B6
:100CCA0002C0880F991F6A95E2F7822B87BB81E0E1
:100CDA00089524B381E090E002C0880F991F6A95B5
:100CEA00E2F7822B84BB81E0089521B381E090E092
:100CFA0002C0880F991F6A95E2F7822B81BB81E0B7
:0E0D0A00089581E0089580E0089580E0089546
:100D1800442319F04130E9F174C0813099F028F08A
:100D28008230E9F0833041F16EC02BB381E090E06E
:100D380002C0880F991F6A95E2F7809582238BBBC2
:100D480081E0089528B381E090E002C0880F991FE0
:100D58006A95E2F78095822388BB81E0089525B3E0
:100D680081E090E002C0880F991F6A95E2F78095AC
:100D7800822385BB81E0089522B381E090E002C020
:100D8800880F991F6A95E2F78095822382BB81E0DC
:100D98000895813091F028F08230D9F0833029F11C
:100DA80034C02BB381E090E002C0880F991F6A9588
:100DB800E2F7822B8BBB81E0089528B381E090E0B5
:100DC80002C0880F991F6A95E2F7822B88BB81E0E1
:100DD800089525B381E090E002C0880F991F6A95B5
:100DE800E2F7822B85BB81E0089522B381E090E091
:100DF80002C0880F991F6A95E2F7822B82BB81E0B7
:0E0E0800089581E0089580E0089580E0089547
:100E1600CF93DF939C01FC013197EE0FFF1FEE0F7E
:100E2600FF1FE05AFF4F10821182138212829091A7
:100E360071002130310561F51DC02E2F30E0E9012A
:100E46002196220F331F220F331FD901A05ABF4FFD
:100E5600CC0FDD1FCC0FDD1FC05ADF4F48815981F3
:100E66006A817B814D935D936D937C931397EF5FBE
:100E7600815002C0892FE0E08130F9F6F0E0EE0FF4
:100E8600FF1FEE0FFF1FE05AFF4F108211820FC0A7
:100E96002230310561F4933051F4E0E6F0E040850C
:100EA6005185628573854483558366837783915024
:100EB600909371008091790081111FC08091780014
:100EC60081111BC080917700811117C069E072E023
:100ED60080E00E94920E60E081E00E94FE0D67E1D4
:100EE60072E080E00E94920E2FEF87EA91E6215091
:100EF60080409040E1F700C000000E945210DF9150
:040F0600CF910895EA
:100F0A00CF93C82F482F441F4427441F64E081E031
:100F1A000E948C06C6FB442740F962E081E00E94E9
:100F2A008C06C5FB442740F961E081E00E948C06EB
:100F3A00C4FB442740F960E081E00E948C0640E04F
:100F4A0063E080E00E948C0641E062E080E00E945B
:100F5A008C0685E08A95F1F7000040E062E080E0C7
:100F6A000E948C068FE193E00197F1F700C0000020
:100F7A00C3FB442740F964E081E00E948C06C2FB6F
:100F8A00442740F962E081E00E948C06C1FB4427B5
:100F9A0040F961E081E00E948C064C2F417060E0CC
:100FAA0081E00E948C0641E062E080E00E948C06AB
:100FBA0095E09A95F1F7000040E062E080E00E9437
:100FCA008C068FE39FE10197F1F700C0000081E0F2
:040FDA00CF91089516
:100FDE00CF93C82F482F441F4427441F64E081E05D
:100FEE000E948C06C6FB442740F962E081E00E9415
:100FFE008C06C5FB442740F961E081E00E948C0617
:10100E00C4FB442740F960E081E00E948C0641E079
:10101E0063E080E00E948C0641E062E080E00E9486
:10102E008C0685E08A95F1F7000040E062E080E0F2
:10103E000E948C068FE193E00197F1F700C000004B
:10104E00C3FB442740F964E081E00E948C06C2FB9A
:10105E00442740F962E081E00E948C06C1FB4427E0
:10106E0040F961E081E00E948C064C2F417060E0F7
:10107E0081E00E948C0641E062E080E00E948C06D6
:10108E0095E09A95F1F7000040E062E080E00E9462
:10109E008C068FE39FE10197F1F700C0000081E01D
:0410AE00CF91089541
:1010B2001F920F920FB60F9211242F933F934F93CB
:1010C2005F936F937F938F939F93AF93BF93EF93AE
:1010D200FF9380917300833628F081E0809375003E
:1010E2001092760080917300823028F481E0809320
:1010F200760010927500809176008823A9F0809185
:101102007400823030F4809174008F5F8093740099
:101112000BC010927400809173008F5F80937300F4
:10112200809173000E94220F809175008823A9F09C
:1011320080917400823030F4809174008F5F8093CC
:1011420074000BC0109274008091730081508093E0
:101152007300809173000E94220FFF91EF91BF9163
:10116200AF919F918F917F916F915F914F913F913D
:0C1172002F910F900FBE0F901F9018954A
:10117E00CF93DF9300D00F92CDB7DEB719821A82CC
:10118E001B8282E00E94480D23C08091790081115C
:10119E0028C080917800811124C080917700811140
:1011AE0020C00E94830BAE014F5F5F4F67E083E06C
:1011BE000E94580CAE014E5F5F4F66E083E00E94C6
:1011CE00580CAE014D5F5F4F65E083E00E94580CF6
:1011DE008981811106C08A81811103C08B81882388
:1011EE00A1F20E9452108981882319F00E94EC020C
:1011FE001AC08A81882329F00E9452100E94130C73
:10120E0012C08B81882379F00E9452100E94890AA5
:10121E00882349F02FEF8BE792E9215080409040D0
:10122E00E1F700C0000081E00F900F900F90DF916A
:04123E00CF910895AF
:10124200EF92FF920F931F93CF93DF93082F162FE6
:10125200F42EE22E622F842F0E94FE0DCDEC0C9F05
:10126200D12D1124D695D695D6952D2F30E040E07C
:1012720050E060E070E080E090E00E945004DD0FFA
:101282008D2F880F880FD80F202F2D1B30E040E0C4
:1012920050E060E070E080E090E00E9450048AE359
:1012A2000E94EF071C9FC12D1124C695C695C695B5
:1012B2002C2F30E040E050E060E070E080E090E011
:1012C2000E945004CC0F8C2F880F880FC80F212F3B
:1012D2002C1B30E040E050E060E070E080E090E005
:1012E2000E9450046E2D8F2D0E94FE0D81E0DF9131
:0C12F200CF911F910F91FF90EF90089595
:1012FE00CF93DF9300D0CDB7DEB71A82198210924A
:10130E006D0010926C00CE0101960E94B30F0E94E8
:10131E00521064E081E00E94FE0D64E272E080E013
:10132E000E94920E17C0CE0101960E94B30F8091BB
:10133E006C0090916D000A9758F00E94920F0E94D7
:10134E00FE0F8AE090E090936D0080936C0002C0D7
:10135E000E946A1089819A818632924020F30E94FF
:10136E0005100E949D0F80917900882321F081E065
:10137E0090E00E940B0780917800882321F082E094
:10138E0090E00E940B0780917700882321F083E084
:10139E0090E00E940B071092790010927800109244
:0C13AE0077000F900F90DF91CF91089511
:1013BA0060E080E00E94FE0D6EED70E080E00E9429
:1013CA00920E62E081E00E94FE0D62EF70E080E022
:1013DA000E94920E62E083E00E94FE0D62E071E0DC
:1013EA0080E00E94920E2FEF87EA91E6215080401A
:1013FA009040E1F700C000000E94521060E080E0D7
:10140A000E94FE0D62E171E080E00E94920E60E0AF
:10141A0081E00E94FE0D61E271E080E00E94920E7E
:10142A0060E082E00E94FE0D60E371E080E00E94CD
:10143A00920E60E083E00E94FE0D60E471E080E0BD
:10144A000E94920E2FEF87EA91E621508040904049
:0E145A00E1F700C000000E94521081E00895EA
:10146800EF92FF920F931F93CF93DF93EC017B01D1
:1014780080E090E03CC08C010F5F1F4F9801BC01D9
:1014880021C0F901EE0FFF1FEE0FFF1FEC0FFD1F2C
:10149800428153814115510599F0FB01EE0FFF1F61
:1014A800EE0FFF1FEC0FFD1F0280F381E02D309738
:1014B80021F04E175F0718F003C0B90101C0B90148
:1014C8002F5F3F4F2E153F05E0F28617970771F003
:1014D800660F771F660F771F880F991F880F991F50
:1014E8006C0F7D1F8C0F9D1F0E94220EC801970153
:1014F800215031098217930708F4BDCFDF91CF91AE
:0A1508001F910F91FF90EF900895DE
:101512000F931F93CF93DF9380917100811141C08C
:1015220068EF71E080E00E94920E2FEF87EA91E669
:10153200215080409040E1F700C0000080E038C0B8
:1015420060E0812F0E94FE0DC02FD0E0AE014F5F00
:101552005F4F952F990F990B242F352F492F592F14
:10156200692F792F892F0E94500461E0812F0E94F8
:10157200FE0D66E072E080E00E94920ECC0FDD1F4D
:10158200CC0FDD1FC05ADF4F22E0412F69818881D5
:101592000E9421091F5F60E0812F0E94FE0D0F5FF4
:1015A20002C010E000E080917100081748F281E06B
:0A15B200DF91CF911F910F91089572
:1015BC001F920F920FB60F9211242F933F938F937C
:1015CC009F9380916C0090916D00019690936D00AB
:1015DC0080936C00809172008F5F80937200809179
:1015EC006E0090916F00843327E1920730F40196DE
:1015FC0090936F0080936E0004C010926F00109255
:10160C006E00209162003091630080916E00909189
:10161C006F002817390719F421E0209379002091E5
:10162C006600309167008217930719F421E020932C
:10163C00780020916A0030916B008217930719F49F
:10164C0081E0809377009F918F913F912F910F9024
:08165C000FBE0F901F901895BE
:1016640088249924F401E401B0E49F93AA279A15ED
:101674008B049C04ED05FE05CF05D007A10798F463
:10168400AD2FDC2FCF2FFE2FE92D982C892E982FEC
:10169400872F762F652F542F432F322F2227B850B0
:1016A40031F7BF9127C01B2EBF91BB27220F331FD9
:1016B400441F551F661F771F881F991F881C991C7C
:1016C400EE1FFF1FCC1FDD1FAA1FBB1F8A149B0424
:1016D400EC05FD05CE05DF05A007B10748F08A1823
:1016E4009B08EC09FD09CE09DF09A00BB10B2160B1
:1016F4001A94E1F62EF49401AF01BE01CD01000C61
:02170400089546
:1017060040916E0050916F009A01A9E8B8E80E94D6
:10171600510FFC01F695E795F295E295EF70EF27EC
:10172600FF70EF272CE32E9FC0012F9F900D1124F1
:10173600FA01E81BF90B9A010E94510F96958795BD
:10174600929582958F7089279F7089272FE041E0B7
:101756006E2F0E942109609171006623D9F070E016
:1017660080E690E00E94340A8091620090916300C6
:1017760020916E0030916F00821B930B99276CE3CA
:1017860070E00E94E90E962F2FE043E0682F892F24
:061796000E9421090895E4
:10179C00CF92DF92EF92FF920F931F93CF93DF9331
:1017AC007C018B016A01E90120C0809171008823C2
:1017BC0029F0A70167E083E00E94580C809171002A
:1017CC00823028F0A80166E083E00E94580C8091DA
:1017DC007100833028F0A60165E083E00E94580C6C
:1017EC00AE0163E083E00E94580CF7018081811107
:1017FC000BC0F8018081811107C0F6018081811135
:10180C0003C08881882389F2DF91CF911F910F91BA
:0A181C00FF90EF90DF90CF90089549
:10182600CF93DF9300D000D0CDB7DEB719821A82EE
:101836001B821C820E94890A882369F184E00E9427
:10184600480D9E012C5F3F4FAE014D5F5F4FBE01BD
:101856006E5F7F4FCE0101960E94CE0B0E94521002
:101866008981882331F081E090E00E940B0781E0B6
:1018760015C08A81882331F082E090E00E940B0730
:1018860081E00CC08B81882341F083E090E00E94C8
:101896000B0781E003C080E001C081E00F900F904C
:0A18A6000F900F90DF91CF9108958D
:1018B000EF92FF920F931F93CF93DF930F92CDB7C9
:1018C000DEB7182F062F7A01AE014F5F5F4F0E94DF
:1018D0000E0D80E008C0AE014F5F5F4F602F812F7B
:1018E0000E940E0D81E099819923A9F32FEF3DEE1F
:1018F00092E0215030409040E1F700C0000008C065
:10190000AE014F5F5F4F602F812F0E940E0D81E06F
:1019100099819923A9F3F701808381E00F90DF91EA
:0C192000CF911F910F91FF90EF90089560
:10192C0041E060E081E00E940D0641E061E081E071
:10193C000E940D0641E062E081E00E940D0641E04C
:10194C0064E081E00E940D0641E063E080E00E94CB
:10195C000D0641E062E080E00E940D062FEF89EF5A
:10196C0090E0215080409040E1F700C0000083E3FC
:10197C000E94850782E30E94850788E20E94850702
:10198C0081E00E9485078FE00E9485078FE39CE928
:0C199C000197F1F700C0000081E0089501
:1019A800813091F028F08230D9F0833029F130C0AD
:1019B8002BB381E090E002C0880F991F6A95E2F787
:1019C80082278BBB81E0089528B381E090E002C0B4
:1019D800880F991F6A95E2F7822788BB81E00895EE
:1019E80025B381E090E002C0880F991F6A95E2F75D
:1019F800822785BB81E0089522B381E090E002C090
:101A0800880F991F6A95E2F7822782BB81E00895C3
:041A180080E00895CD
:101A1C00813091F028F08230D9F0833029F130C038
:101A2C0089B390E002C0959587956A95E2F781702D
:101A3C00FA01808381E0089586B390E002C0959509
:101A4C0087956A95E2F78170FA01808381E00895A9
:101A5C0083B390E002C0959587956A95E2F7817003
:101A6C00FA01808381E0089580B390E002C09595DF
:101A7C0087956A95E2F78170FA01808381E0089579
:041A8C0080E0089559
:101A9000CF93C82F65E083E00E94FE0D81E30E9492
:101AA000EF0768E083E00E94FE0D82E30E94EF07EB
:101AB0006BE083E00E94FE0DC33021F488E50E94B4
:101AC000EF0717C0C23059F483E30E94EF076EE0BE
:101AD00083E00E94FE0D8CE70E94EF070AC083E3BB
:101AE0000E94EF076EE083E00E94FE0D88E50E94F1
:061AF000EF07CF910895FD
:101AF600689401C0E894F92FF12B12F00C94630F4F
:101B0600A0E0B0E0E9E8FDE00C94490E092E05944A
:101B160022F40E94320F112392F4F0E80F26FFEF11
:101B2600E094F09400951095B094C094D094A1944C
:101B3600BF0ACF0ADF0AEF0AFF0A0F0B1F0B0E942C
:101B4600320B07FC0E94320FCDB7DEB7ECE00C94E7
:021B5600650E1A
:101B580080917900811107C080917800811103C0BC
:101B68008091770081110E947F090E94521060E0E5
:101B780080E00E94FE0D6FE471E080E00E94920E0A
:101B880060E081E00E94FE0D6FE571E080E00E9458
:101B9800920E60E082E00E94FE0D6FE671E080E048
:0C1BA8000E94920E0E94BF0881E0089588
:101BB4001F920F920FB60F9211242F933F934F93BE
:101BC4005F936F937F938F939F93AF93BF93EF93A1
:101BD400FF930E94D10FFF91EF91BF91AF919F911D
:101BE4008F917F916F915F914F913F912F910F90C2
:081BF4000FBE0F901F90189521
:101BFC00CF936431E8F4813091F028F0823031F0E9
:101C0C00833039F009C080E0C1E00BC084E1C1E051
:101C1C0008C084E5C1E005C080E0C0E002C080E4FB
:101C2C00C1E0C13031F4860F80580E94850701C095
:081C3C00C0E08C2FCF91089548
:101C4400CF92DF92EF92FF920F931F93FC010081DA
:101C5400118122813381FB01C080D180E280F38035
:101C6400FC01C082D182E282F382FB0100831183F2
:101C7400228333831F910F91FF90EF90DF90CF90D9
:021C84000895C1
:101C86002F923F924F925F926F927F928F929F9286
:101C9600AF92BF92CF92DF92EF92FF920F931F9374
:101CA600CF93DF93CDB7DEB7CA1BDB0B0FB6F89425
:081CB600DEBF0FBECDBF099493
:101CBE002A88398848885F846E847D848C849B84CE
:101CCE00AA84B984C884DF80EE80FD800C811B81DC
:101CDE00AA81B981CE0FD11D0FB6F894DEBF0FBE0B
:061CEE00CDBFED010895D9
:101CF40097B1907F97B997B1892B87B986B1877FC0
:101D040086B986B18F7D86B986B1806486B93699E5
:101D1400FECF84B195B1FB019183808381E0089566
:101D2400CF92DF92EF926B01E82E06C00E94EF077C
:101D34008FEFC81AD80AE80AF6018491E7FC80817B
:0E1D44008111F4CF81E0EF90DF90CF900895F1
:101D520063E083E00E94481065E083E00E9448103F
:101D620066E083E00E94481067E083E00E9448102A
:0C1D72000E94960C0E94110F81E0089561
:101D7E009FB7982B9FBF803829F40FB607FC08C079
:101D8E0080E00895811106C00FB607FE05C00895C4
:0C1D9E0081E0089580E0089581E0089540
:101DAA0087B18F7787B987B1806487B986B1806830
:101DBA0086B986B1846086B986B1826086B986B1F1
:081DCA00816086B981E00895F3
:101DD20097FB072E16F4009407D077FD09D00E94D6
:101DE200FD0E07FC05D03EF4909581959F4F089516
:081DF200709561957F4F089583
:101DFA00AA1BBB1B51E107C0AA1FBB1FA617B70727
:101E0A0010F0A61BB70B881F991F5A95A9F7809542
:081E1A009095BC01CD01089573
:101E220080E80E94BF0E1FBC8DE08EBD89E09DE35D
:101E32009BBD8ABD89B7806189BF88B7806188BF31
:021E4200089501
:101E4400843608F083E6811101C081E02FEF829F80
:101E5400C001112464E670E00E94E90E6CBF08958D
:101E64006095709580959095309540955095219505
:101E74003F4F4F4F5F4F6F4F7F4F8F4F9F4F08958F
:101E84000E94E20F0E9424100E9412100E94361039
:0E1E94000E949D0F0E947A0F0E94BD0F0895BC
:101EA200A29FB001B39FC001A39F700D811D112499
:0E1EB200911DB29F700D811D1124911D089588
:101EC000689401C0E8948F929F92CF93DF930E9411
:0C1ED000320BDF91CF919F908F9008950E
:101EDC000E94420F0E94A90E0E94F70F0E94DA0F77
:081EEC000E94DD0981E0089568
:101EF40080E80E94BF0E83E483BF89B7836089BFF3
:081F040088B7826088BF0895D0
:101F0C000024A7FD00942A173005400550056005F4
:081F1C00700580059005089591
:101F24000E94BD0F0E94E90F0E942A100E941810FF
:061F34000E943C1008951C
:101F3A000E94BD0F0E94F00F0E9430100E941E10D6
:061F4A000E944210089500
:101F5000EC010E9472100E947110CE010E94731059
:061F6000CE010E946F108B
:101F6600BC0180E00E947A0E882311F081E008957A
:041F760080E008956A
:101F7A0083B78E7F83BF83B78D7F83BF83B78B7F02
:041F8A0083BF089574
:101F8E0083B7816083BF83B7826083BF83B78B7F44
:041F9E0083BF089560
:101FA2000E940C100E9457100E944D100E945C105B
:021FB200089590
:101FB4000E94D50E882311F081E0089580E00895F1
:0E1FC40041E065E080E00E940D0681E0089596
:0E1FD20041E065E080E00E948C0681E0089509
:0E1FE00040E065E080E00E948C0681E00895FC
:0E1FEE0041E066E082E00E940D0681E0089569
:0E1FFC0041E066E082E00E948C0681E00895DC
:0E200A0040E066E082E00E948C0681E00895CE
:0C20180065E080E00E94D40C81E0089597
:0C20240041E064E080E00E940D06089599
:0C20300041E064E080E00E948C0608950E
:0C203C0040E064E080E00E948C06089503
:0C20480041E067E081E00E940D06089571
:0C20540041E067E081E00E948C060895E6
:0C20600040E067E081E00E948C060895DB
:0C206C0041E066E080E00E940D0608954F
:0C20780041E066E080E00E948C060895C4
:0C20840040E066E080E00E948C060895B9
:0A20900040E00E940D0681E0089573
:0A209A0064E080E00E94D40C089579
:0A20A40081E00E94850781E00895A5
:0A20AE0067E081E00E94D40C089561
:0A20B80066E080E00E94D40C089559
:0A20C2000E946E0F0E946610FDCF11
:0820CC000E94AC0D81E00895B3
:0620D4000E94C70F0895F1
:0420DA000C94000062
:0420DE000E946D00EF
:0220E20008955F
:0220E40008955D
:0220E60008955B
:0220E8000A00EC
:0120EA0008ED
:0120EB0001F3
:0120EC0001F2
:00000001FF
